:1000000037C1000050C100004EC100004CC10000CB
:100010004AC1000048C1000046C1000044C10000C0
:1000200042C1000040C10000ABC500003CC100005F
:100030003AC1000038C1000036C1000034C10000E0
:1000400032C1000030C100002EC100002CC10000F0
:100050002AC1000028C1000026C1000024C1000000
:1000600022C100002EC100001EC100001CC1000002
:100070001AC1000018C1000016C1000014C1000020
:1000800012C1000010C100000EC100000CC1000030
:100090000AC1000008C1000006C1000004C1000040
:1000A00002C1000000C10000FEC00000AD06CF0686
:1000B000BB07CF06BB0714073607BB0788079A079D
:1000C0002800000000010400010000000000000002
:1000D0000001584749503130000000000000000086
:1000E00000000000000000001A0337004500450032
:1000F000440038003600460041003100460032001E
:1001000043000000160343006F006E00740072008D
:100110006F006C006C0065007200000014034D005D
:100120006900630072006F0073006F006600740066
:1001300000000403090412034D005300460054005C
:1001400031003000300090000000B203580062001F
:100150006F00780020005300650063007500720096
:1001600069007400790020004D006500740068008B
:100170006F006400200033002C0020005600650052
:100180007200730069006F006E00200031002E00C5
:10019000300030002C002000A90020003200300088
:1001A0003000350020004D006900630072006F00D0
:1001B00073006F0066007400200043006F0072003F
:1001C00070006F0072006100740069006F006E00C3
:1001D0002E00200041006C006C00200072006900BD
:1001E00067006800740073002000720065007300EF
:1001F000650072007600650064002E0000000902B0
:100200006000030100A0FA0904000002FF47D000CB
:1002100007050203400004070581034000040904A8
:10022000010000FF47D0000904010102FF47D00090
:1002300007050401E4000107058301E40001090446
:10024000020000FF47D0000904020102FF47D0006E
:100250000705060240000007058502400000120164
:100260000002FF47D0405E04DD02030201020301E9
:1002700011241FBECFEFDAE0DEBFCDBF11E0A0E05A
:10028000B1E0ECE0F0E102C005900D92A234B107BC
:10029000D9F721E0A2E4B1E001C01D92AA3DB20766
:1002A000E1F7D0D1B1C6ACCE5E9AF89498E088E17F
:1002B0000FB6F894A895809360000FBE90936000ED
:1002C000FFCF1F920F920FB60F9211242F933F93DF
:1002D0004F935F936F937F938F939F93AF93BF934E
:1002E000EF93FF938091CE00809386018091C800A8
:1002F00087FFFCCF8091CE0080938501809186019D
:100300008F3F19F48DE891E002C082E491E0909370
:100310008C0180938B0120918B0130918C01809115
:100320008A0190918501891778F491E0980F909354
:100330008A01F901E80FF11D8091C80087FFFCCF09
:100340008091CE008083EBCF10928A01809186014C
:10035000833309F442C028F48131A1F0823231F1B3
:100360005EC0853509F453C08F3F09F451C0843411
:1003700009F055C081E080938401809185018093CC
:1003800083014DC08091C80085FFFCCF81E180933F
:10039000CE008091C80085FFFCCF81E08093CE0025
:1003A0008091C80085FFFCCF86E014C08091C80012
:1003B00085FFFCCF82E28093CE008091C80085FF4C
:1003C000FCCF81E08093CE00809182019091C800A3
:1003D00095FFFCCF8093CE0022C08091C80085FF9E
:1003E000FCCF83E38093CE008091C80085FFFCCFD3
:1003F00081E08093CE00809182019091C80095FFAA
:10040000FCCF8093CE0081E08093870108C04CDF51
:1004100081E0809389018091850180938801FF911B
:10042000EF91BF91AF919F918F917F916F915F916C
:100430004F913F912F910F900FBE0F901F901895E5
:1004400081E090E09093CD008093CC0086E0809393
:10045000CA001092C800E9ECF0E088E18083539A6A
:100460005A9A808180688083089514BE0FB6F894EC
:10047000A895809160008861809360001092600070
:100480000FBE90E080E80FB6F894809361009093DF
:1004900061000FBED5DF7894569A5E9880918701EF
:1004A0008823E1F350C30895089542E361EC81E0AD
:1004B00083D242E360EC82E07FC2CF93DF931F924E
:1004C000CDB7DEB78091D20186FF2BC087FF4DC02C
:1004D0009091D301903909F048C08F71A1F48091B7
:1004E000D6019091D701049709F03FC08091E800B0
:1004F000877F8093E8006091D8017091D90180ECEA
:1005000090E0F8D121C0813081F58091D6019091A1
:10051000D701059751F58091E800877F8093E80027
:1005200013C080FF23C09091D30187FF11C09A3080
:10053000E1F419828091E800877F8093E80061E010
:1005400070E0CE01019675D18091E8008B770AC0EA
:100550009B3059F48091E800877F8093E800809178
:10056000E8008E778093E80001C05E9A0F90DF91DB
:10057000CF91089581E08093E900809189018823DB
:1005800099F08091E80080FFFCCF6091880170E0D5
:1005900040E050E08DE891E0B8D010928901809160
:1005A000E8008E778093E8000895CF93DF9300D022
:1005B000CDB7DEB71A82198282E08093E90080917C
:1005C000E80082FF33C08091E80085FF0EC0AE01D5
:1005D0004F5F5F4F60E470E082E091E0E0D0811116
:1005E00004C080E490E09A8389838091E8008B774F
:1005F0008093E80069817A8161157105B9F0609393
:10060000010177276E5F7F4F80E091E0E7D4809112
:10061000820181110BC080910201863039F48091F2
:100620000301803219F481E0809382010F900F90D2
:10063000DF91CF9108958091D101843011F49ADF38
:10064000B4CF089512DFF7DFAFD4FDCF292F3327C2
:100650002230310561F02330310571F02130310550
:1006600009F04BC082E190E02EE532E04AC080E61E
:1006700090E02EEF31E045C099278230910529F1B5
:1006800068F40097D1F0019709F037C0ECE1F1E090
:10069000E4918E2F90E02CE131E033C0843091055D
:1006A00021F1D8F08E3E910541F5E6E3F1E0E491C9
:1006B0008E2F90E026E331E024C0E2E3F1E0E49104
:1006C0008E2F90E022E331E01CC0E4E0F1E0E49101
:1006D0008E2F90E024E031E014C0E8EEF0E0E491E9
:1006E0008E2F90E028EE30E00CC0EAE4F1E0E491D7
:1006F0008E2F90E02AE431E004C080E090E020E01A
:1007000030E0FA01318320830895CF92DF92EF9297
:10071000FF920F931F93CF93DF93EC018B017A012C
:100720009FD1811133C0E114F10439F0F7018081C8
:100730009181081B190BC80FD91FC12CD12C011591
:10074000110519F18091E80085FD16C08091E8003F
:100750008E778093E80028D4E114F10449F0F70182
:1007600080819181C80ED91ED182C08285E00EC0E1
:1007700077D1882321F30AC089918093F100015039
:100780001109FFEFCF1ADF0ADACF80E0DF91CF91B6
:100790001F910F91FF90EF90DF90CF900895CF922F
:1007A000DF92EF92FF920F931F93CF93DF93EC01B1
:1007B0008B017A0155D1811133C0E114F10439F074
:1007C000F70180819181081B190BC80FD91FC12C1B
:1007D000D12C0115110519F18091E80085FD16C095
:1007E0008091E8008B778093E800DED3E114F10478
:1007F00049F0F70180819181C80ED91ED182C08253
:1008000085E00EC02DD1882321F30AC08091F1002C
:10081000899301501109FFEFCF1ADF0ADACF80E088
:10082000DF91CF911F910F91FF90EF90DF90CF90CC
:1008300008952091D8013091D9012617370748F043
:100840006115710539F42091E8002E772093E800B6
:1008500001C0B901FC0120E06115710591F18091A1
:10086000D101882309F440C0853009F43FC080914C
:10087000E80083FD3DC08091E80082FD2FC080919B
:10088000E80080FFE9CF2091F3008091F20090E032
:10089000922B6115710551F08034910538F4219146
:1008A0002093F100615071090196F3CF21E080346B
:1008B000910509F020E08091E8008E778093E800B0
:1008C000CBCF2111CCCF0AC08091D101882361F018
:1008D000853061F08091E80083FD0AC08091E800D6
:1008E00082FFF2CF80E0089582E0089583E00895CA
:1008F00081E008952091D8013091D901261737075A
:1009000048F06115710539F42091E8002E772093A5
:10091000E80001C0B901FC0120E06115710599F101
:100920008091D101882309F441C0853009F440C089
:100930008091E80083FD3EC08091E80082FD30C0D8
:100940008091E80080FFE9CF2091F3008091F200D0
:1009500090E0922B6115710559F08034910540F4B7
:1009600024912093F1003196615071090196F2CFE4
:1009700021E08034910509F020E08091E8008E7735
:100980008093E800CACF2111CBCF0AC08091D1015A
:10099000882361F0853061F08091E80083FD0AC012
:1009A0008091E80082FFF2CF80E0089582E0089510
:1009B00083E0089581E00895982F973068F590932B
:1009C000E900981739F07091EC002091ED005091FA
:1009D000F00003C0242F762F50E021FD02C09F5F5E
:1009E000ECCF3091EB003E7F3093EB003091ED0087
:1009F0003D7F3093ED003091EB0031603093EB00A0
:100A00007093EC002093ED005093F0002091EE00E5
:100A100027FDE5CF80E008958F708093E90081E0A5
:100A200008958091D20187FF11C08091E80082FD76
:100A300005C08091D1018111F8CF11C08091E800EB
:100A40008B770BC08091D101882349F08091E80019
:100A500080FFF8CF8091E8008E778093E8000895BA
:100A60002091E4003091E50095E64091EC00842F60
:100A7000817040FF23C08091E80080FD1DC08091FF
:100A8000D101882399F0853099F08091EB0085FDA4
:100A900011C04091E4005091E5002417350729F377
:100AA000915011F09A01E1CF84E0089582E0089519
:100AB00083E0089581E0089580E008954091E80082
:100AC00042FFDDCF08950F931F93CF93DF934BD059
:100AD00052D0C8EDD0E088818F7788838881806884
:100AE000888388818F7D888319BC1092D1011092F0
:100AF000CD011092CF011092CE0100EE10E0F8016E
:100B000080818B7F808388818160888342E360E07D
:100B100080E052DFE1EEF0E080818E7F8083E2EEC4
:100B2000F0E0808181608083808188608083F8012B
:100B300080818E7F8083888180618883DF91CF91DF
:100B40001F910F910895E8EDF0E080818F7E808302
:100B5000E7EDF0E080818160808384E082BF81E006
:100B60008093D001B0CFE8EDF0E080818E7F80836C
:100B70001092E20008951092DA001092E1000895B8
:100B80001F920F920FB60F9211242F933F934F9302
:100B90005F936F937F938F939F93AF93BF93EF93E5
:100BA000FF938091E10082FF0AC08091E20082FF02
:100BB00006C08091E1008B7F8093E100F4D18091A9
:100BC000DA0080FF1DC08091D80080FF19C080919D
:100BD000DA008E7F8093DA008091D90080FF0CC00C
:100BE00080E189BD82E189BD09B400FEFDCF81E0CD
:100BF0008093D10158DC04C019BC1092D10154DC9F
:100C00008091E10080FF18C08091E20080FF14C055
:100C10008091E2008E7F8093E2008091E20080610B
:100C20008093E2008091D80080628093D80019BC44
:100C300085E08093D101B7D18091E10084FF2FC07E
:100C40008091E20084FF2BC080E189BD82E189BDF3
:100C500009B400FEFDCF8091D8008F7D8093D8002D
:100C60008091E1008F7E8093E1008091E2008F7E91
:100C70008093E2008091E20081608093E2008091A5
:100C8000CD01882311F084E007C08091E30087FD47
:100C900002C081E001C083E08093D10184D18091C2
:100CA000E10083FF22C08091E20083FF1EC080919B
:100CB000E100877F8093E10082E08093D101109270
:100CC000CD018091E1008E7F8093E1008091E20070
:100CD0008E7F8093E2008091E20080618093E20049
:100CE00042E360E080E068DE5ED1FF91EF91BF916A
:100CF000AF919F918F917F916F915F914F913F91B4
:100D00002F910F900FBE0F901F9018951F93CF93A8
:100D1000DF93CDB7DEB7AA970FB6F894DEBF0FBE4C
:100D2000CDBFE2EDF1E08091F100819321E0EA3D59
:100D3000F207C9F7C2DB8091E80083FF1CC18091F4
:100D4000D2019091D301492F50E04A30510508F06B
:100D500012C1FA01EA5AFF4F51C1803881F082383E
:100D600009F009C18091D6018F708093E9008091CC
:100D7000EB0085FB882780F91092E90006C080917E
:100D8000CE019091CF01911182609091E800977F00
:100D90009093E8008093F1001092F100C4C0282FD6
:100DA0002D7F09F0E8C0882319F0823061F0E3C09C
:100DB0008091D401813009F0DEC0933009F080E0E9
:100DC0008093CF012BC08091D401811127C08091E5
:100DD000D6018F7009F4CFC08093E9002091EB0019
:100DE00020FF1CC0933021F48091EB00806214C07E
:100DF0009091EB0090619093EB0021E030E0A9012D
:100E000002C0440F551F8A95E2F74093EA00109202
:100E1000EA008091EB0088608093EB001092E9007B
:100E20008091E800877F82C08111A5C01091D40114
:100E30001F778091E3008078812B8093E30080917D
:100E4000E800877F8093E800ECDD8091E80080FF78
:100E5000FCCF8091E30080688093E300111102C011
:100E600082E001C083E08093D10185C08058823048
:100E700008F081C08091D4019091D5018C3D53E060
:100E8000950771F583E08A838AE289834FB7F894E6
:100E9000DE01139620E03EE051E2E32FF0E05093B4
:100EA0005700E49120FF03C0E295EF703F5FEF70C1
:100EB0008E2F90E0EA3010F0C79601C0C0968D9357
:100EC0009D932F5F243149F74FBF8091E800877FC2
:100ED0008093E8006AE270E0CE010196AADC12C0BD
:100EE000AE014F5F5F4F6091D601B0DBBC01892B33
:100EF00009F441C09091E800977F9093E8008981C0
:100F00009A81F8DC8091E8008B778093E80033C009
:100F1000803889F58091E800877F8093E800809190
:100F2000CD018093F1008091E8008E778093E800F6
:100F300078DD21C081111FC08091D4019091D5012D
:100F400099270297C4F48091E800877F8093E80096
:100F50008091D4018093CD0164DD8091CD01811118
:100F600006C08091E30087FD02C081E001C084E0FB
:100F70008093D1019ADA8091E80083FF0AC08091C2
:100F8000E800877F8093E8008091EB008062809387
:100F9000EB00AA960FB6F894DEBF0FBECDBFDF916F
:100FA000CF911F9108950895CF938091D101882307
:100FB00099F0C091E900CF709091EC00892F817079
:100FC00090FD80E8C82B1092E9008091E80083FD35
:100FD0009DDECF70C093E900CF910895680F791F0F
:100FE0008617970751F0FC012191CF013091C8007D
:100FF00035FFFCCF2093CE00F3CF0895EE0FFF1FF7
:0C1000000590F491E02D0994F894FFCFC6
:10100C00EE000000000000000000000000000000E6
:10101C0000000000000000000000000000000000C4
:10102C0000000000000000000000000000000000B4
:10103C0000000000000000000000000000000000A4
:02104C000000A2
:00000001FF
