:100000001DC1000036C1000034C1000032C1000033
:1000100030C100002EC100002CC100002AC1000028
:1000200028C1000026C10000EAC5000022C100006E
:1000300020C100001EC100001CC100001AC1000048
:1000400018C1000016C1000014C1000012C1000058
:1000500010C100000EC100000CC100000AC1000068
:1000600008C1000032C1000004C1000002C100004C
:1000700000C10000FEC00000FCC00000FAC000008B
:10008000F8C00000F6C00000F4C00000F2C000009C
:10009000F0C00000EEC00000ECC00000EAC00000AC
:1000A000E8C00000E6C00000E4C00000EC060E0757
:1000B000FA070E07FA0753077507FA07C707D907A4
:1000C0000321270441002C5600000000000000001E
:1000D00000000D0D00000000000000000000000006
:1000E0000000000000000000000000000000000010
:1000F000F3003838000000002A035700690072003E
:1001000065006C00650073007300200043006F0001
:100110006E00740072006F006C006C00650072006D
:1001200000003A0353006F006E0079002000430086
:100130006F006D0070007500740065007200200093
:1001400045006E0074006500720074006100690073
:100150006E006D0065006E00740000000403090469
:1001600009022900010100C0FA090400000203008D
:10017000000009211101000122A0000705840340AD
:1001800000050705030340000512010002000000FE
:1001900040EB03432000010102000105010905A114
:1001A0000185010930093109320935150026FF00A2
:1001B0007508950481020939150025073500463B6D
:1001C000016514750495018142650005091901292D
:1001D0000E150025017501950E81020600FF09200C
:1001E000750695018102050109330934150026FFC2
:1001F000007508950281020600FF092195368102EB
:1002000085050922951F910285030A2127952FB1A3
:1002100002C006F0FF0940A10185F00947953FB1F2
:100220000285F10948953FB10285F20949950FB160
:100230000285F30A01479507B102C00011241FBED1
:10024000CFEFDAE0DEBFCDBF11E0A0E0B1E0ECE936
:10025000F0E102C005900D92A238B107D9F722E073
:10026000A2E8B1E001C01D92A931B207E1F707D2BF
:1002700013C7C6CE8091C80085FFFCCF84E480936D
:10028000CE008091110287FF06C08091C80085FFD3
:10029000FCCF88E007C080911702885F9091C8006A
:1002A00095FFFCCF8093CE0068E070E081E192E0A2
:1002B000D4C6F89498E088E10FB6F894A895809396
:1002C00060000FBE90936000FFCF1F920F920FB699
:1002D0000F9211242F933F934F935F936F937F93CC
:1002E0008F939F93AF93BF93EF93FF938091CE0033
:1002F000809305028091C80087FFFCCF8091CE00DB
:1003000080930402809105028F3F19F482E491E00A
:1003100002C082EC91E090930A028093090220913E
:10032000090230910A028091080290910402891713
:1003300078F491E0980F90930802F901E80FF11D0D
:100340008091C80087FFFCCF8091CE008083EBCFE7
:100350001092080280910502833309F442C028F408
:100360008131A1F0823231F15AC0853509F453C090
:100370008F3F09F451C0843409F051C081E080936B
:100380000302809104028093020249C08091C80058
:1003900085FFFCCF81E18093CE008091C80085FF6E
:1003A000FCCF81E08093CE008091C80085FFFCCF18
:1003B00085E014C08091C80085FFFCCF82E2809365
:1003C000CE008091C80085FFFCCF81E08093CE00F5
:1003D000809106029091C80095FFFCCF8093CE00DB
:1003E0001EC08091C80085FFFCCF83E38093CE00C0
:1003F0008091C80085FFFCCF81E08093CE00809182
:1004000006029091C80095FFFCCF8093CE0081E05A
:100410008093060204C04DDF81E080930702FF91C4
:10042000EF91BF91AF919F918F917F916F915F916C
:100430004F913F912F910F900FBE0F901F901895E5
:1004400081E090E09093CD008093CC0086E0809393
:10045000CA001092C800E9ECF0E088E18083539A6A
:100460005A9A808180688083089514BE0FB6F894EC
:10047000A895809160008861809360001092600070
:100480000FBE90E080E80FB6F894809361009093DF
:1004900061000FBED5DF7894809106028823E1F3D6
:1004A00091C30895089542E361EC84E0C4D242E32D
:1004B00060EC83E0C0C2CF93C0911202C13021F042
:1004C000C93009F459C07DC080911102813A09F008
:1004D00078C08091130290911402833023E0920738
:1004E000C9F440E350E060EC70E082E891E0CBD5E5
:1004F0008091E800877F8093E80060E370E082E805
:1005000091E096D18091E8008B778093E800C093CA
:100510000B0257C0833F23E0920789F448E050E084
:1005200060EF70E082E891E0AED58091E800877FCF
:100530008093E80068E070E082E891E016C0815F97
:100540009340029708F03DC01092030293DE809121
:1005500003028823E1F38091E800877F8093E8001D
:100560006091020270E082EC91E062D18091E8003B
:100570008B778093E80025C080911102813209F5C4
:100580008091E800877F8093E80060911702709166
:10059000180282E891E0ADD18091E8008E778093D7
:1005A000E8008091130290911402803F934049F437
:1005B00061DE609117027091180282E891E0CF919C
:1005C0004CC5CF91089584E08093E90080910B029F
:1005D0008823B1F080910702882391F08091E80090
:1005E00080FFFCCF40E050E060E470E082E491E006
:1005F0008BD08091E8008E778093E80010920702FC
:100600000895CF93DF9300D0CDB7DEB71A82198259
:1006100083E08093E9008091E80082FF24C080910C
:10062000E80085FF0EC0AE014F5F5F4F60E470E0F1
:1006300082E091E0B3D0811104C080E490E09A831D
:1006400089838091E8008B778093E80069817A81C3
:100650006115710541F06093010177276E5F7F4F4F
:1006600080E091E0FAD40F900F90DF91CF91089540
:1006700080911002843011F4A6DFC3CF0895F5DE17
:10068000F7DFD1D4FDCF292F332723303105E1F017
:1006900058F42130310599F02230310569F589E2AD
:1006A00090E020E631E02CC02132310501F1223208
:1006B000310511F580EA90E02BE931E021C082E1BB
:1006C00090E029E831E01CC099278130910549F07C
:1006D00028F0029789F4E8EFF0E005C0ECE5F1E0DE
:1006E00002C0E2E2F1E0849190E09F0109C089E05C
:1006F00090E022E731E004C080E090E020E030E0CC
:10070000FA01318320830895CF92DF92EF92FF9216
:100710000F931F93CF93DF93EC018B017A01DFD10D
:10072000811133C0E114F10439F0F7018081918126
:10073000081B190BC80FD91FC12CD12C011511058D
:1007400019F18091E80085FD16C08091E8008E7750
:100750008093E80068D4E114F10449F0F701808146
:100760009181C80ED91ED182C08285E00EC0B7D15A
:10077000882321F30AC089918093F1000150110967
:10078000FFEFCF1ADF0ADACF80E0DF91CF911F9120
:100790000F91FF90EF90DF90CF900895CF92DF926E
:1007A000EF92FF920F931F93CF93DF93EC018B0196
:1007B0007A0195D1811133C0E114F10439F0F701C8
:1007C00080819181081B190BC80FD91FC12CD12C16
:1007D0000115110519F18091E80085FD16C0809181
:1007E000E8008B778093E8001ED4E114F10449F00F
:1007F000F70180819181C80ED91ED182C08285E027
:100800000EC06DD1882321F30AC08091F100899335
:1008100001501109FFEFCF1ADF0ADACF80E0DF9134
:10082000CF911F910F91FF90EF90DF90CF9008959F
:1008300020911702309118022617370748F06115EA
:10084000710539F42091E8002E772093E80001C06B
:10085000B901FC0120E06115710591F18091100250
:10086000882309F440C0853009F43FC08091E80036
:1008700083FD3DC08091E80082FD2FC08091E8009B
:1008800080FFE9CF2091F3008091F20090E0922B5D
:100890006115710551F08034910538F42191209350
:1008A000F100615071090196F3CF21E08034910588
:1008B00009F020E08091E8008E778093E800CBCFAC
:1008C0002111CCCF0AC080911002882361F08530BD
:1008D00061F08091E80083FD0AC08091E80082FF0A
:1008E000F2CF80E0089582E0089583E0089581E0EA
:1008F00008956115710529F42091E8002B77209364
:10090000E800FC016115710541F180911002882316
:1009100061F1853061F18091E80083FD24C0809110
:10092000E80082FFEFCF2091F3008091F20090E089
:10093000922B892B31F08091F100819361507109E4
:1009400091F78091E8008B778093E800DBCF80916E
:100950001002882351F0853051F08091E80080FF2B
:10096000F6CF80E0089581E0089582E0089583E065
:10097000089520911702309118022617370748F082
:100980006115710539F42091E8002E772093E80075
:1009900001C0B901FC0120E06115710599F1809158
:1009A0001002882309F441C0853009F440C08091C9
:1009B000E80083FD3EC08091E80082FD30C0809158
:1009C000E80080FFE9CF2091F3008091F20090E0F1
:1009D000922B6115710559F08034910540F42491F2
:1009E0002093F1003196615071090196F2CF21E018
:1009F0008034910509F020E08091E8008E778093A3
:100A0000E800CACF2111CBCF0AC080911002882301
:100A100061F0853061F08091E80083FD0AC080912B
:100A2000E80082FFF2CF80E0089582E0089583E03D
:100A3000089581E00895982F973068F59093E90024
:100A4000981739F07091EC002091ED005091F00072
:100A500003C0242F762F50E021FD02C09F5FECCF12
:100A60003091EB003E7F3093EB003091ED003D7F05
:100A70003093ED003091EB0031603093EB007093D8
:100A8000EC002093ED005093F0002091EE0027FD44
:100A9000E5CF80E008958F708093E90081E00895AC
:100AA0008091110287FF11C08091E80082FD05C08E
:100AB000809110028111F8CF11C08091E8008B77EE
:100AC0000BC080911002882349F08091E80080FFDC
:100AD000F8CF8091E8008E778093E8000895209108
:100AE000E4003091E50095E64091EC00842F8170A0
:100AF00040FF23C08091E80080FD1DC0809110025E
:100B0000882399F0853099F08091EB0085FD11C024
:100B10004091E4005091E5002417350729F39150E6
:100B200011F09A01E1CF84E0089582E0089583E016
:100B3000089581E0089580E008954091E80042FF23
:100B4000DDCF08950F931F93CF93DF934BD052D0F7
:100B5000C8EDD0E088818F7788838881806888831A
:100B600088818F7D888319BC1092100210920C022C
:100B700010920E0210920D0200EE10E0F80180813A
:100B80008B7F808388818160888342E360E080E09E
:100B900052DFE1EEF0E080818E7F8083E2EEF0E0D4
:100BA000808181608083808188608083F80180817A
:100BB0008E7F8083888180618883DF91CF911F91B0
:100BC0000F910895E8EDF0E080818F7E8083E7ED5E
:100BD000F0E080818160808384E082BF81E0809347
:100BE0000F02B0CFE8EDF0E080818E7F808310921D
:100BF000E20008951092DA001092E10008951F9229
:100C00000F920FB60F9211242F933F934F935F9340
:100C10006F937F938F939F93AF93BF93EF93FF93C4
:100C20008091E10082FF0AC08091E20082FF06C04D
:100C30008091E1008B7F8093E100F4D18091DA0014
:100C400080FF1DC08091D80080FF19C08091DA001C
:100C50008E7F8093DA008091D90080FF0CC080E104
:100C600089BD82E189BD09B400FEFDCF81E080939A
:100C7000100217DC04C019BC1092100213DC809122
:100C8000E10080FF18C08091E20080FF14C08091D5
:100C9000E2008E7F8093E2008091E2008061809389
:100CA000E2008091D80080628093D80019BC85E072
:100CB00080931002B7D18091E10084FF2FC0809112
:100CC000E20084FF2BC080E189BD82E189BD09B4C7
:100CD00000FEFDCF8091D8008F7D8093D800809159
:100CE000E1008F7E8093E1008091E2008F7E80930F
:100CF000E2008091E20081608093E20080910C022A
:100D0000882311F084E007C08091E30087FD02C0D2
:100D100081E001C083E08093100284D18091E100E2
:100D200083FF22C08091E20083FF1EC08091E1001A
:100D3000877F8093E10082E08093100210920C0282
:100D40008091E1008E7F8093E1008091E2008E7FB0
:100D50008093E2008091E20080618093E20042E3B0
:100D600060E080E068DE5ED1FF91EF91BF91AF91CE
:100D70009F918F917F916F915F914F913F912F91B3
:100D80000F900FBE0F901F9018951F93CF93DF9376
:100D9000CDB7DEB7AA970FB6F894DEBF0FBECDBFB2
:100DA000E1E1F2E08091F100819322E0E931F20784
:100DB000C9F781DB8091E80083FF1CC1809111029B
:100DC00090911202492F50E04A30510508F012C1AB
:100DD000FA01EA5AFF4F51C1803881F0823809F098
:100DE00009C1809115028F708093E9008091EB001A
:100DF00085FB882780F91092E90006C080910D02DA
:100E000090910E02911182609091E800977F9093EB
:100E1000E8008093F1001092F100C4C0282F2D7FCC
:100E200009F0E8C0882319F0823061F0E3C08091B6
:100E30001302813009F0DEC0933009F080E0809326
:100E40000E022BC080911302811127C080911502E0
:100E50008F7009F4CFC08093E9002091EB0020FF50
:100E60001CC0933021F48091EB00806214C09091FB
:100E7000EB0090619093EB0021E030E0A90102C00B
:100E8000440F551F8A95E2F74093EA001092EA005A
:100E90008091EB0088608093EB001092E9008091D4
:100EA000E800877F82C08111A5C0109113021F77CF
:100EB0008091E3008078812B8093E3008091E800AB
:100EC000877F8093E800ECDD8091E80080FFFCCF15
:100ED0008091E30080688093E300111102C082E0FA
:100EE00001C083E08093100285C08058823008F0F2
:100EF00081C080911302909114028C3D53E09507BC
:100F000071F583E08A838AE289834FB7F894DE0122
:100F1000139620E03EE051E2E32FF0E050935700BB
:100F2000E49120FF03C0E295EF703F5FEF708E2FDA
:100F300090E0EA3010F0C79601C0C0968D939D9363
:100F40002F5F243149F74FBF8091E800877F80935E
:100F5000E8006AE270E0CE0101966ADC12C0AE01E0
:100F60004F5F5F4F609115028EDBBC01892B09F446
:100F700041C09091E800977F9093E80089819A8121
:100F8000F8DC8091E8008B778093E80033C08038EC
:100F900089F58091E800877F8093E80080910C02BA
:100FA0008093F1008091E8008E778093E80078DDEF
:100FB00021C081111FC080911302909114029927C2
:100FC0000297C4F48091E800877F8093E8008091C5
:100FD000130280930C0264DD80910C02811106C023
:100FE0008091E30087FD02C081E001C084E080932E
:100FF000100259DA8091E80083FF0AC08091E8006E
:10100000877F8093E8008091EB0080628093EB0003
:10101000AA960FB6F894DEBF0FBECDBFDF91CF9179
:101020001F9108950895CF9380911002882399F01D
:10103000C091E900CF709091EC00892F817090FDF4
:1010400080E8C82B1092E9008091E80083FD9DDEC6
:10105000CF70C093E900CF910895680F791F86176C
:10106000970751F0FC012191CF013091C80035FF65
:10107000FCCF2093CE00F3CF0895EE0FFF1F059015
:10108000F491E02D0994FB01DC0102C005900D9262
:0C10900041505040D8F70895F894FFCF6D
:10109C00EE00000000000000000000000000000056
:1010AC000000000000000000000000000000000034
:1010BC000000000000000000000000000000000024
:1010CC000000000000000000000000000000000014
:1010DC000000018080808008000000009950FF0013
:1010EC000000000000E7FF6E20D90900000000009E
:1010FC00080000000080000000800000000080005C
:10110C000000800000000080000000800000000053
:02111C00800051
:00000001FF
